{
  "contractName": "Certification",
  "abi": [
    {
      "constant": true,
      "inputs": [],
      "name": "owner",
      "outputs": [
        {
          "name": "",
          "type": "address"
        }
      ],
      "payable": false,
      "stateMutability": "view",
      "type": "function",
      "signature": "0x8da5cb5b"
    },
    {
      "inputs": [],
      "payable": false,
      "stateMutability": "nonpayable",
      "type": "constructor",
      "signature": "constructor"
    },
    {
      "constant": false,
      "inputs": [
        {
          "name": "to",
          "type": "address"
        },
        {
          "name": "name",
          "type": "string"
        },
        {
          "name": "competitionName",
          "type": "string"
        }
      ],
      "name": "issueCertificate",
      "outputs": [],
      "payable": false,
      "stateMutability": "nonpayable",
      "type": "function",
      "signature": "0xe98ac4d8"
    },
    {
      "constant": true,
      "inputs": [],
      "name": "viewCertificates",
      "outputs": [
        {
          "components": [
            {
              "name": "to",
              "type": "address"
            },
            {
              "name": "name",
              "type": "string"
            },
            {
              "name": "competitionName",
              "type": "string"
            },
            {
              "name": "timestamp",
              "type": "uint256"
            }
          ],
          "name": "",
          "type": "tuple[]"
        }
      ],
      "payable": false,
      "stateMutability": "view",
      "type": "function",
      "signature": "0x7bc5133b"
    }
  ],
  "bytecode": "0x608060405234801561001057600080fd5b5060008054600160a060020a031916331790556107d6806100326000396000f3fe6080604052600436106100565763ffffffff7c01000000000000000000000000000000000000000000000000000000006000350416637bc5133b811461005b5780638da5cb5b14610086578063e98ac4d8146100a8575b600080fd5b34801561006757600080fd5b506100706100ca565b60405161007d91906106be565b60405180910390f35b34801561009257600080fd5b5061009b61027c565b60405161007d91906106aa565b3480156100b457600080fd5b506100c86100c33660046104e6565b610298565b005b60606001805480602002602001604051908101604052809291908181526020016000905b828210156102725760008481526020908190206040805160808101825260048602909201805473ffffffffffffffffffffffffffffffffffffffff168352600180820180548451600261010094831615949094026000190190911692909204601f8101879004870283018701909452838252939491938583019391929091908301828280156101be5780601f10610193576101008083540402835291602001916101be565b820191906000526020600020905b8154815290600101906020018083116101a157829003601f168201915b5050509183525050600282810180546040805160206001841615610100026000190190931694909404601f810183900483028501830190915280845293810193908301828280156102505780601f1061022557610100808354040283529160200191610250565b820191906000526020600020905b81548152906001019060200180831161023357829003601f168201915b50505050508152602001600382015481525050815260200190600101906100ee565b5050505090505b90565b60005473ffffffffffffffffffffffffffffffffffffffff1681565b337368ffd6c6695e64fde44cf491cb4619e05d592c2c146102ee576040517f08c379a00000000000000000000000000000000000000000000000000000000081526004016102e5906106cf565b60405180910390fd5b6040805160808101825273ffffffffffffffffffffffffffffffffffffffff858116825260208083018681529383018590524260608401526001805480820180835560009290925284517fb10e2d527612073b26eecdfd717e6a320cf44b4afac2b0732d9fcbe2b7fa0cf66004909202918201805473ffffffffffffffffffffffffffffffffffffffff1916919095161784559451805191956103b8937fb10e2d527612073b26eecdfd717e6a320cf44b4afac2b0732d9fcbe2b7fa0cf7909101929101906103e7565b50604082015180516103d49160028401916020909101906103e7565b5060608201518160030155505050505050565b828054600181600116156101000203166002900490600052602060002090601f016020900481019282601f1061042857805160ff1916838001178555610455565b82800160010185558215610455579182015b8281111561045557825182559160200191906001019061043a565b50610461929150610465565b5090565b61027991905b80821115610461576000815560010161046b565b600061048b8235610738565b9392505050565b6000601f820183136104a357600080fd5b81356104b66104b182610706565b6106df565b915080825260208301602083018583830111156104d257600080fd5b6104dd838284610756565b50505092915050565b6000806000606084860312156104fb57600080fd5b6000610507868661047f565b935050602084013567ffffffffffffffff81111561052457600080fd5b61053086828701610492565b925050604084013567ffffffffffffffff81111561054d57600080fd5b61055986828701610492565b9150509250925092565b61056c81610738565b82525050565b600061057d82610734565b808452602084019350836020820285016105968561072e565b60005b848110156105cd5783830388526105b183835161063e565b92506105bc8261072e565b602098909801979150600101610599565b50909695505050505050565b60006105e482610734565b8084526105f8816020860160208601610762565b61060181610792565b9093016020019392505050565b601d81527f596f752063616e6e6f7420697373756520636572746966696361746573000000602082015260400190565b805160009060808401906106528582610563565b506020830151848203602086015261066a82826105d9565b9150506040830151848203604086015261068482826105d9565b915050606083015161069960608601826106a1565b509392505050565b61056c81610279565b602081016106b88284610563565b92915050565b6020808252810161048b8184610572565b602080825281016106b88161060e565b60405181810167ffffffffffffffff811182821017156106fe57600080fd5b604052919050565b600067ffffffffffffffff82111561071d57600080fd5b506020601f91909101601f19160190565b60200190565b5190565b600073ffffffffffffffffffffffffffffffffffffffff82166106b8565b82818337506000910152565b60005b8381101561077d578181015183820152602001610765565b8381111561078c576000848401525b50505050565b601f01601f19169056fea265627a7a723058208c805459a3c72550405b86f8796cc5e1b6d2b44cd35e21259fb987e7931ef9146c6578706572696d656e74616cf50037",
  "source": "// SPDX-License-Identifier: MIT\npragma solidity >=0.5.0 <0.9.0;\npragma experimental ABIEncoderV2;\n\n\n\ncontract Certification {\n    address constant SENDER = 0x68FFD6C6695E64fDe44cF491cb4619E05D592C2c;\n    \n    \n    address public owner;\n\n    struct Certificate {\n        address to;\n        string name;\n        string competitionName;\n        uint256 timestamp;\n    }\n    Certificate[] certificates;\n\n    constructor () public {\n        owner = msg.sender;\n    }\n\n    function issueCertificate(address to, string memory name, string memory competitionName) public {\n        require(msg.sender == SENDER, \"You cannot issue certificates\");\n\n        certificates.push(Certificate(to, name, competitionName, block.timestamp));\n    }\n\n    function viewCertificates() public view returns (Certificate[] memory)\n    {\n        return certificates;\n    }\n\n}",
  "sourcePath": "/Volumes/Personal/Projects/blockchain/BlockchainCertification/contracts/Certification.sol",
  "compiler": {
    "name": "solc",
    "version": "0.5.0+commit.1d4f565a.Emscripten.clang"
  },
  "schemaVersion": "3.0.1",
  "updatedAt": "2023-04-09T16:11:58.560Z",
  "devdoc": {
    "methods": {}
  },
  "userdoc": {
    "methods": {}
  }
}