{
  "contractName": "Certification",
  "abi": [
    {
      "constant": true,
      "inputs": [],
      "name": "owner",
      "outputs": [
        {
          "name": "",
          "type": "address"
        }
      ],
      "payable": false,
      "stateMutability": "view",
      "type": "function",
      "signature": "0x8da5cb5b"
    },
    {
      "inputs": [],
      "payable": false,
      "stateMutability": "nonpayable",
      "type": "constructor",
      "signature": "constructor"
    },
    {
      "constant": false,
      "inputs": [
        {
          "name": "to",
          "type": "address"
        },
        {
          "name": "name",
          "type": "string"
        },
        {
          "name": "competitionName",
          "type": "string"
        },
        {
          "name": "email",
          "type": "string"
        }
      ],
      "name": "issueCertificate",
      "outputs": [],
      "payable": false,
      "stateMutability": "nonpayable",
      "type": "function",
      "signature": "0x8eb933ac"
    },
    {
      "constant": false,
      "inputs": [
        {
          "name": "TxID",
          "type": "string"
        }
      ],
      "name": "addCertificateID",
      "outputs": [],
      "payable": false,
      "stateMutability": "nonpayable",
      "type": "function",
      "signature": "0xd973c571"
    },
    {
      "constant": true,
      "inputs": [],
      "name": "viewCertificates",
      "outputs": [
        {
          "components": [
            {
              "name": "to",
              "type": "address"
            },
            {
              "name": "name",
              "type": "string"
            },
            {
              "name": "competitionName",
              "type": "string"
            },
            {
              "name": "timestamp",
              "type": "uint256"
            },
            {
              "name": "email",
              "type": "string"
            }
          ],
          "name": "",
          "type": "tuple[]"
        }
      ],
      "payable": false,
      "stateMutability": "view",
      "type": "function",
      "signature": "0x7bc5133b"
    },
    {
      "constant": true,
      "inputs": [],
      "name": "viewCertificateIDs",
      "outputs": [
        {
          "components": [
            {
              "name": "TxID",
              "type": "string"
            }
          ],
          "name": "",
          "type": "tuple[]"
        }
      ],
      "payable": false,
      "stateMutability": "view",
      "type": "function",
      "signature": "0x81bf2b61"
    },
    {
      "constant": true,
      "inputs": [
        {
          "name": "to",
          "type": "address"
        }
      ],
      "name": "viewCertificateByAddress",
      "outputs": [
        {
          "components": [
            {
              "name": "to",
              "type": "address"
            },
            {
              "name": "name",
              "type": "string"
            },
            {
              "name": "competitionName",
              "type": "string"
            },
            {
              "name": "timestamp",
              "type": "uint256"
            },
            {
              "name": "email",
              "type": "string"
            }
          ],
          "name": "",
          "type": "tuple[]"
        }
      ],
      "payable": false,
      "stateMutability": "view",
      "type": "function",
      "signature": "0x16428764"
    },
    {
      "constant": true,
      "inputs": [
        {
          "name": "to",
          "type": "address"
        }
      ],
      "name": "viewCertificateIDByAddress",
      "outputs": [
        {
          "components": [
            {
              "name": "TxID",
              "type": "string"
            }
          ],
          "name": "",
          "type": "tuple[]"
        }
      ],
      "payable": false,
      "stateMutability": "view",
      "type": "function",
      "signature": "0xe7231a6c"
    }
  ],
  "bytecode": "0x608060405234801561001057600080fd5b5060008054600160a060020a03191633179055611020806100326000396000f3fe6080604052600436106100825763ffffffff7c01000000000000000000000000000000000000000000000000000000006000350416631642876481146100875780637bc5133b146100bd57806381bf2b61146100d25780638da5cb5b146100f45780638eb933ac14610116578063d973c57114610138578063e7231a6c14610158575b600080fd5b34801561009357600080fd5b506100a76100a2366004610c19565b610178565b6040516100b49190610f15565b60405180910390f35b3480156100c957600080fd5b506100a7610438565b3480156100de57600080fd5b506100e7610671565b6040516100b49190610f04565b34801561010057600080fd5b5061010961074c565b6040516100b49190610ef0565b34801561012257600080fd5b50610136610131366004610c3f565b61075b565b005b34801561014457600080fd5b50610136610153366004610ce8565b6108c1565b34801561016457600080fd5b506100e7610173366004610c19565b61096d565b6060806001805490506040519080825280602002602001820160405280156101ba57816020015b6101a7610acf565b81526020019060019003908161019f5790505b5090506000805b60015481101561042f5784600160a060020a03166001828154811015156101e457fe5b6000918252602090912060059091020154600160a060020a0316141561042757600180548290811061021257fe5b60009182526020918290206040805160a08101825260059093029091018054600160a060020a03168352600180820180548451601f600260001995841615610100029590950190921693909304908101879004870283018701909452838252939491938583019391929091908301828280156102cf5780601f106102a4576101008083540402835291602001916102cf565b820191906000526020600020905b8154815290600101906020018083116102b257829003601f168201915b5050509183525050600282810180546040805160206001841615610100026000190190931694909404601f810183900483028501830190915280845293810193908301828280156103615780601f1061033657610100808354040283529160200191610361565b820191906000526020600020905b81548152906001019060200180831161034457829003601f168201915b5050509183525050600382015460208083019190915260048301805460408051601f600260001961010060018716150201909416939093049283018590048502810185018252828152940193928301828280156103ff5780601f106103d4576101008083540402835291602001916103ff565b820191906000526020600020905b8154815290600101906020018083116103e257829003601f168201915b505050505081525050838381518110151561041657fe5b602090810290910101526001909101905b6001016101c1565b50909392505050565b60606001805480602002602001604051908101604052809291908181526020016000905b828210156106675760008481526020908190206040805160a081018252600586029092018054600160a060020a03168352600180820180548451600261010094831615949094026000190190911692909204601f81018790048702830187019094528382529394919385830193919290919083018282801561051f5780601f106104f45761010080835404028352916020019161051f565b820191906000526020600020905b81548152906001019060200180831161050257829003601f168201915b5050509183525050600282810180546040805160206001841615610100026000190190931694909404601f810183900483028501830190915280845293810193908301828280156105b15780601f10610586576101008083540402835291602001916105b1565b820191906000526020600020905b81548152906001019060200180831161059457829003601f168201915b5050509183525050600382015460208083019190915260048301805460408051601f6002600019610100600187161502019094169390930492830185900485028101850182528281529401939283018282801561064f5780601f106106245761010080835404028352916020019161064f565b820191906000526020600020905b81548152906001019060200180831161063257829003601f168201915b5050505050815250508152602001906001019061045c565b5050505090505b90565b60606002805480602002602001604051908101604052809291908181526020016000905b8282101561066757600084815260209081902060408051918501805460026001821615610100026000190190911604601f81018590048502840183018352938301848152929390928492909184918401828280156107345780601f1061070957610100808354040283529160200191610734565b820191906000526020600020905b81548152906001019060200180831161071757829003601f168201915b50505050508152505081526020019060010190610695565b600054600160a060020a031681565b3373f70749d704756465be60f9332e4c975719e37a8a146107b1576040517f08c379a00000000000000000000000000000000000000000000000000000000081526004016107a890610f26565b60405180910390fd5b6040805160a081018252600160a060020a0386811682526020808301878152938301869052426060840152608083018590526001805480820180835560009290925284517fb10e2d527612073b26eecdfd717e6a320cf44b4afac2b0732d9fcbe2b7fa0cf66005909202918201805473ffffffffffffffffffffffffffffffffffffffff191691909516178455945180519195610875937fb10e2d527612073b26eecdfd717e6a320cf44b4afac2b0732d9fcbe2b7fa0cf790910192910190610b08565b5060408201518051610891916002840191602090910190610b08565b5060608201516003820155608082015180516108b7916004840191602090910190610b08565b5050505050505050565b3373f70749d704756465be60f9332e4c975719e37a8a1461090e576040517f08c379a00000000000000000000000000000000000000000000000000000000081526004016107a890610f26565b60408051602081810190925282815260028054600181018083556000929092528251805192947f405787fa12a823e0f2b7631cc41b3ba8828b3321ca811111fa75cd3aa3bb5ace909201926109669284920190610b08565b5050505050565b6060806002805490506040519080825280602002602001820160405280156109af57816020015b61099c610b86565b8152602001906001900390816109945790505b5090506000805b60015481101561042f5784600160a060020a03166001828154811015156109d957fe5b6000918252602090912060059091020154600160a060020a03161415610ac7576002805482908110610a0757fe5b60009182526020918290206040805192909101805460026001821615610100026000190190911604601f8101859004850284018301835293830184815292939092849290918491840182828015610a9f5780601f10610a7457610100808354040283529160200191610a9f565b820191906000526020600020905b815481529060010190602001808311610a8257829003601f168201915b5050505050815250508383815181101515610ab657fe5b602090810290910101526001909101905b6001016109b6565b60a0604051908101604052806000600160a060020a03168152602001606081526020016060815260200160008152602001606081525090565b828054600181600116156101000203166002900490600052602060002090601f016020900481019282601f10610b4957805160ff1916838001178555610b76565b82800160010185558215610b76579182015b82811115610b76578251825591602001919060010190610b5b565b50610b82929150610b98565b5090565b60408051602081019091526060815290565b61066e91905b80821115610b825760008155600101610b9e565b6000610bbe8235610f8f565b9392505050565b6000601f82018313610bd657600080fd5b8135610be9610be482610f5d565b610f36565b91508082526020830160208301858383011115610c0557600080fd5b610c10838284610fa0565b50505092915050565b600060208284031215610c2b57600080fd5b6000610c378484610bb2565b949350505050565b60008060008060808587031215610c5557600080fd5b6000610c618787610bb2565b945050602085013567ffffffffffffffff811115610c7e57600080fd5b610c8a87828801610bc5565b935050604085013567ffffffffffffffff811115610ca757600080fd5b610cb387828801610bc5565b925050606085013567ffffffffffffffff811115610cd057600080fd5b610cdc87828801610bc5565b91505092959194509250565b600060208284031215610cfa57600080fd5b813567ffffffffffffffff811115610d1157600080fd5b610c3784828501610bc5565b610d2681610f8f565b82525050565b6000610d3782610f8b565b80845260208401935083602082028501610d5085610f85565b60005b84811015610d87578383038852610d6b838351610e53565b9250610d7682610f85565b602098909801979150600101610d53565b50909695505050505050565b6000610d9e82610f8b565b80845260208401935083602082028501610db785610f85565b60005b84811015610d87578383038852610dd2838351610e74565b9250610ddd82610f85565b602098909801979150600101610dba565b6000610df982610f8b565b808452610e0d816020860160208601610fac565b610e1681610fdc565b9093016020019392505050565b601d81527f596f752063616e6e6f7420697373756520636572746966696361746573000000602082015260400190565b8051602080845260009190840190610e6b8282610dee565b95945050505050565b805160009060a0840190610e888582610d1d565b5060208301518482036020860152610ea08282610dee565b91505060408301518482036040860152610eba8282610dee565b9150506060830151610ecf6060860182610ee7565b5060808301518482036080860152610e6b8282610dee565b610d268161066e565b60208101610efe8284610d1d565b92915050565b60208082528101610bbe8184610d2c565b60208082528101610bbe8184610d93565b60208082528101610efe81610e23565b60405181810167ffffffffffffffff81118282101715610f5557600080fd5b604052919050565b600067ffffffffffffffff821115610f7457600080fd5b506020601f91909101601f19160190565b60200190565b5190565b6000600160a060020a038216610efe565b82818337506000910152565b60005b83811015610fc7578181015183820152602001610faf565b83811115610fd6576000848401525b50505050565b601f01601f19169056fea265627a7a7230582053e543876d9615b314477963db8b8213b5dbb36ee15b8cebd5a5ea8cbd247b636c6578706572696d656e74616cf50037",
  "source": "// SPDX-License-Identifier: MIT\npragma solidity >=0.5.0 <0.9.0;\npragma experimental ABIEncoderV2;\n\n\n\ncontract Certification {\n    address constant SENDER = 0xF70749d704756465Be60f9332E4C975719e37a8A;\n    \n    \n    address public owner;\n\n    struct Certificate {\n        address to;\n        string name;\n        string competitionName;\n        uint256 timestamp;\n        string email;\n    }\n    Certificate[] certificates;\n\n    struct CertificateID {\n        string TxID;\n\n    }\n    CertificateID[] certificateIDs;\n\n    constructor () public {\n        owner = msg.sender;\n    }\n\n    function issueCertificate(address to, string memory name, string memory competitionName, string memory email) public {\n        require(msg.sender == SENDER, \"You cannot issue certificates\");\n\n        certificates.push(Certificate(to, name, competitionName, block.timestamp, email));\n    }\n\n    function addCertificateID(string memory TxID) public {\n        require(msg.sender == SENDER, \"You cannot issue certificates\");\n        certificateIDs.push(CertificateID(TxID));\n    }\n\n    function viewCertificates() public view returns (Certificate[] memory)\n    {\n        return certificates;\n    }\n\n    function viewCertificateIDs() public view returns (CertificateID[] memory)\n    {\n        return certificateIDs;\n    }\n\n    function viewCertificateByAddress(address to) public view returns(Certificate[] memory)\n    {\n        Certificate[] memory result = new Certificate[](certificates.length);\n        uint256 counter = 0;\n        for (uint256 i = 0; i < certificates.length; i++) {\n            if (certificates[i].to == to) {\n                result[counter] = certificates[i];\n                counter++;\n            }\n        }\n        return result;\n    }\n\n    function viewCertificateIDByAddress(address to) public view returns(CertificateID[] memory)\n    {\n        CertificateID[] memory result = new CertificateID[](certificateIDs.length);\n        uint256 counter = 0;\n        for (uint256 i = 0; i < certificates.length; i++) {\n            if (certificates[i].to == to) {\n                result[counter] = certificateIDs[i];\n                counter++;\n            }\n        }\n        return result;\n    }\n\n}",
  "sourcePath": "/Users/omkar/Downloads/blockchain-certification/contracts/Certification.sol",
  "compiler": {
    "name": "solc",
    "version": "0.5.0+commit.1d4f565a.Emscripten.clang"
  },
  "schemaVersion": "3.0.1",
  "updatedAt": "2023-05-19T08:16:25.285Z",
  "devdoc": {
    "methods": {}
  },
  "userdoc": {
    "methods": {}
  }
}