{
  "contractName": "Certification",
  "abi": [
    {
      "constant": true,
      "inputs": [],
      "name": "owner",
      "outputs": [
        {
          "name": "",
          "type": "address"
        }
      ],
      "payable": false,
      "stateMutability": "view",
      "type": "function",
      "signature": "0x8da5cb5b"
    },
    {
      "inputs": [],
      "payable": false,
      "stateMutability": "nonpayable",
      "type": "constructor",
      "signature": "constructor"
    },
    {
      "constant": false,
      "inputs": [
        {
          "name": "to",
          "type": "address"
        },
        {
          "name": "name",
          "type": "string"
        },
        {
          "name": "competitionName",
          "type": "string"
        },
        {
          "name": "email",
          "type": "string"
        }
      ],
      "name": "issueCertificate",
      "outputs": [],
      "payable": false,
      "stateMutability": "nonpayable",
      "type": "function",
      "signature": "0x8eb933ac"
    },
    {
      "constant": true,
      "inputs": [],
      "name": "viewCertificates",
      "outputs": [
        {
          "components": [
            {
              "name": "to",
              "type": "address"
            },
            {
              "name": "name",
              "type": "string"
            },
            {
              "name": "competitionName",
              "type": "string"
            },
            {
              "name": "timestamp",
              "type": "uint256"
            },
            {
              "name": "email",
              "type": "string"
            }
          ],
          "name": "",
          "type": "tuple[]"
        }
      ],
      "payable": false,
      "stateMutability": "view",
      "type": "function",
      "signature": "0x7bc5133b"
    },
    {
      "constant": true,
      "inputs": [
        {
          "name": "to",
          "type": "address"
        }
      ],
      "name": "viewCertificateByAddress",
      "outputs": [
        {
          "components": [
            {
              "name": "to",
              "type": "address"
            },
            {
              "name": "name",
              "type": "string"
            },
            {
              "name": "competitionName",
              "type": "string"
            },
            {
              "name": "timestamp",
              "type": "uint256"
            },
            {
              "name": "email",
              "type": "string"
            }
          ],
          "name": "",
          "type": "tuple[]"
        }
      ],
      "payable": false,
      "stateMutability": "view",
      "type": "function",
      "signature": "0x16428764"
    }
  ],
  "bytecode": "0x608060405234801561001057600080fd5b5060008054600160a060020a03191633179055610be9806100326000396000f3fe6080604052600436106100615763ffffffff7c01000000000000000000000000000000000000000000000000000000006000350416631642876481146100665780637bc5133b1461009c5780638da5cb5b146100b15780638eb933ac146100d3575b600080fd5b34801561007257600080fd5b5061008661008136600461089b565b6100f5565b6040516100939190610ade565b60405180910390f35b3480156100a857600080fd5b506100866103b5565b3480156100bd57600080fd5b506100c66105ee565b6040516100939190610aca565b3480156100df57600080fd5b506100f36100ee3660046108c1565b6105fd565b005b60608060018054905060405190808252806020026020018201604052801561013757816020015b610124610763565b81526020019060019003908161011c5790505b5090506000805b6001548110156103ac5784600160a060020a031660018281548110151561016157fe5b6000918252602090912060059091020154600160a060020a031614156103a457600180548290811061018f57fe5b60009182526020918290206040805160a08101825260059093029091018054600160a060020a03168352600180820180548451601f6002600019958416156101000295909501909216939093049081018790048702830187019094528382529394919385830193919290919083018282801561024c5780601f106102215761010080835404028352916020019161024c565b820191906000526020600020905b81548152906001019060200180831161022f57829003601f168201915b5050509183525050600282810180546040805160206001841615610100026000190190931694909404601f810183900483028501830190915280845293810193908301828280156102de5780601f106102b3576101008083540402835291602001916102de565b820191906000526020600020905b8154815290600101906020018083116102c157829003601f168201915b5050509183525050600382015460208083019190915260048301805460408051601f6002600019610100600187161502019094169390930492830185900485028101850182528281529401939283018282801561037c5780601f106103515761010080835404028352916020019161037c565b820191906000526020600020905b81548152906001019060200180831161035f57829003601f168201915b505050505081525050838381518110151561039357fe5b602090810290910101526001909101905b60010161013e565b50909392505050565b60606001805480602002602001604051908101604052809291908181526020016000905b828210156105e45760008481526020908190206040805160a081018252600586029092018054600160a060020a03168352600180820180548451600261010094831615949094026000190190911692909204601f81018790048702830187019094528382529394919385830193919290919083018282801561049c5780601f106104715761010080835404028352916020019161049c565b820191906000526020600020905b81548152906001019060200180831161047f57829003601f168201915b5050509183525050600282810180546040805160206001841615610100026000190190931694909404601f8101839004830285018301909152808452938101939083018282801561052e5780601f106105035761010080835404028352916020019161052e565b820191906000526020600020905b81548152906001019060200180831161051157829003601f168201915b5050509183525050600382015460208083019190915260048301805460408051601f600260001961010060018716150201909416939093049283018590048502810185018252828152940193928301828280156105cc5780601f106105a1576101008083540402835291602001916105cc565b820191906000526020600020905b8154815290600101906020018083116105af57829003601f168201915b505050505081525050815260200190600101906103d9565b5050505090505b90565b600054600160a060020a031681565b33731583ff370ac71db02e085cc98da1613fcfd21ace14610653576040517f08c379a000000000000000000000000000000000000000000000000000000000815260040161064a90610aef565b60405180910390fd5b6040805160a081018252600160a060020a0386811682526020808301878152938301869052426060840152608083018590526001805480820180835560009290925284517fb10e2d527612073b26eecdfd717e6a320cf44b4afac2b0732d9fcbe2b7fa0cf66005909202918201805473ffffffffffffffffffffffffffffffffffffffff191691909516178455945180519195610717937fb10e2d527612073b26eecdfd717e6a320cf44b4afac2b0732d9fcbe2b7fa0cf79091019291019061079c565b506040820151805161073391600284019160209091019061079c565b50606082015160038201556080820151805161075991600484019160209091019061079c565b5050505050505050565b60a0604051908101604052806000600160a060020a03168152602001606081526020016060815260200160008152602001606081525090565b828054600181600116156101000203166002900490600052602060002090601f016020900481019282601f106107dd57805160ff191683800117855561080a565b8280016001018555821561080a579182015b8281111561080a5782518255916020019190600101906107ef565b5061081692915061081a565b5090565b6105eb91905b808211156108165760008155600101610820565b60006108408235610b58565b9392505050565b6000601f8201831361085857600080fd5b813561086b61086682610b26565b610aff565b9150808252602083016020830185838301111561088757600080fd5b610892838284610b69565b50505092915050565b6000602082840312156108ad57600080fd5b60006108b98484610834565b949350505050565b600080600080608085870312156108d757600080fd5b60006108e38787610834565b945050602085013567ffffffffffffffff81111561090057600080fd5b61090c87828801610847565b935050604085013567ffffffffffffffff81111561092957600080fd5b61093587828801610847565b925050606085013567ffffffffffffffff81111561095257600080fd5b61095e87828801610847565b91505092959194509250565b61097381610b58565b82525050565b600061098482610b54565b8084526020840193508360208202850161099d85610b4e565b60005b848110156109d45783830388526109b8838351610a45565b92506109c382610b4e565b6020989098019791506001016109a0565b50909695505050505050565b60006109eb82610b54565b8084526109ff816020860160208601610b75565b610a0881610ba5565b9093016020019392505050565b601d81527f596f752063616e6e6f7420697373756520636572746966696361746573000000602082015260400190565b805160009060a0840190610a59858261096a565b5060208301518482036020860152610a7182826109e0565b91505060408301518482036040860152610a8b82826109e0565b9150506060830151610aa06060860182610ac1565b5060808301518482036080860152610ab882826109e0565b95945050505050565b610973816105eb565b60208101610ad8828461096a565b92915050565b602080825281016108408184610979565b60208082528101610ad881610a15565b60405181810167ffffffffffffffff81118282101715610b1e57600080fd5b604052919050565b600067ffffffffffffffff821115610b3d57600080fd5b506020601f91909101601f19160190565b60200190565b5190565b6000600160a060020a038216610ad8565b82818337506000910152565b60005b83811015610b90578181015183820152602001610b78565b83811115610b9f576000848401525b50505050565b601f01601f19169056fea265627a7a72305820c32b6901c831a71b6c1ad12537e6d7c045fb2b0324002458d863d5cfe88b72686c6578706572696d656e74616cf50037",
  "source": "// SPDX-License-Identifier: MIT\npragma solidity >=0.5.0 <0.9.0;\npragma experimental ABIEncoderV2;\n\n\n\ncontract Certification {\n    address constant SENDER = 0x1583fF370ac71Db02E085cc98Da1613fcFD21Ace;\n    \n    \n    address public owner;\n\n    struct Certificate {\n        address to;\n        string name;\n        string competitionName;\n        uint256 timestamp;\n        string email;\n    }\n    Certificate[] certificates;\n\n    constructor () public {\n        owner = msg.sender;\n    }\n\n    function issueCertificate(address to, string memory name, string memory competitionName, string memory email) public {\n        require(msg.sender == SENDER, \"You cannot issue certificates\");\n\n        certificates.push(Certificate(to, name, competitionName, block.timestamp, email));\n    }\n\n    function viewCertificates() public view returns (Certificate[] memory)\n    {\n        return certificates;\n    }\n\n    function viewCertificateByAddress(address to) public view returns(Certificate[] memory)\n    {\n        Certificate[] memory result = new Certificate[](certificates.length);\n        uint256 counter = 0;\n        for (uint256 i = 0; i < certificates.length; i++) {\n            if (certificates[i].to == to) {\n                result[counter] = certificates[i];\n                counter++;\n            }\n        }\n        return result;\n    }\n\n}",
  "sourcePath": "/Volumes/Personal/Projects/blockchain/BlockchainCertification/contracts/Certification.sol",
  "compiler": {
    "name": "solc",
    "version": "0.5.0+commit.1d4f565a.Emscripten.clang"
  },
  "schemaVersion": "3.0.1",
  "updatedAt": "2023-04-10T20:34:14.974Z",
  "devdoc": {
    "methods": {}
  },
  "userdoc": {
    "methods": {}
  }
}