{
  "contractName": "Certification",
  "abi": [
    {
      "constant": true,
      "inputs": [],
      "name": "owner",
      "outputs": [
        {
          "name": "",
          "type": "address"
        }
      ],
      "payable": false,
      "stateMutability": "view",
      "type": "function",
      "signature": "0x8da5cb5b"
    },
    {
      "inputs": [],
      "payable": false,
      "stateMutability": "nonpayable",
      "type": "constructor",
      "signature": "constructor"
    },
    {
      "constant": false,
      "inputs": [
        {
          "name": "to",
          "type": "address"
        },
        {
          "name": "name",
          "type": "string"
        },
        {
          "name": "competitionName",
          "type": "string"
        },
        {
          "name": "email",
          "type": "string"
        }
      ],
      "name": "issueCertificate",
      "outputs": [],
      "payable": false,
      "stateMutability": "nonpayable",
      "type": "function",
      "signature": "0x8eb933ac"
    },
    {
      "constant": true,
      "inputs": [],
      "name": "viewCertificates",
      "outputs": [
        {
          "components": [
            {
              "name": "to",
              "type": "address"
            },
            {
              "name": "name",
              "type": "string"
            },
            {
              "name": "competitionName",
              "type": "string"
            },
            {
              "name": "timestamp",
              "type": "uint256"
            },
            {
              "name": "email",
              "type": "string"
            }
          ],
          "name": "",
          "type": "tuple[]"
        }
      ],
      "payable": false,
      "stateMutability": "view",
      "type": "function",
      "signature": "0x7bc5133b"
    }
  ],
  "bytecode": "0x608060405234801561001057600080fd5b5060008054600160a060020a031916331790556108d3806100326000396000f3fe6080604052600436106100565763ffffffff7c01000000000000000000000000000000000000000000000000000000006000350416637bc5133b811461005b5780638da5cb5b146100865780638eb933ac146100a8575b600080fd5b34801561006757600080fd5b506100706100ca565b60405161007d91906107bb565b60405180910390f35b34801561009257600080fd5b5061009b610310565b60405161007d91906107a7565b3480156100b457600080fd5b506100c86100c336600461059e565b61032c565b005b60606001805480602002602001604051908101604052809291908181526020016000905b828210156103065760008481526020908190206040805160a08101825260058602909201805473ffffffffffffffffffffffffffffffffffffffff168352600180820180548451600261010094831615949094026000190190911692909204601f8101879004870283018701909452838252939491938583019391929091908301828280156101be5780601f10610193576101008083540402835291602001916101be565b820191906000526020600020905b8154815290600101906020018083116101a157829003601f168201915b5050509183525050600282810180546040805160206001841615610100026000190190931694909404601f810183900483028501830190915280845293810193908301828280156102505780601f1061022557610100808354040283529160200191610250565b820191906000526020600020905b81548152906001019060200180831161023357829003601f168201915b5050509183525050600382015460208083019190915260048301805460408051601f600260001961010060018716150201909416939093049283018590048502810185018252828152940193928301828280156102ee5780601f106102c3576101008083540402835291602001916102ee565b820191906000526020600020905b8154815290600101906020018083116102d157829003601f168201915b505050505081525050815260200190600101906100ee565b5050505090505b90565b60005473ffffffffffffffffffffffffffffffffffffffff1681565b33731583ff370ac71db02e085cc98da1613fcfd21ace14610382576040517f08c379a0000000000000000000000000000000000000000000000000000000008152600401610379906107cc565b60405180910390fd5b6040805160a08101825273ffffffffffffffffffffffffffffffffffffffff86811682526020808301878152938301869052426060840152608083018590526001805480820180835560009290925284517fb10e2d527612073b26eecdfd717e6a320cf44b4afac2b0732d9fcbe2b7fa0cf66005909202918201805473ffffffffffffffffffffffffffffffffffffffff191691909516178455945180519195610453937fb10e2d527612073b26eecdfd717e6a320cf44b4afac2b0732d9fcbe2b7fa0cf79091019291019061049f565b506040820151805161046f91600284019160209091019061049f565b50606082015160038201556080820151805161049591600484019160209091019061049f565b5050505050505050565b828054600181600116156101000203166002900490600052602060002090601f016020900481019282601f106104e057805160ff191683800117855561050d565b8280016001018555821561050d579182015b8281111561050d5782518255916020019190600101906104f2565b5061051992915061051d565b5090565b61030d91905b808211156105195760008155600101610523565b60006105438235610835565b9392505050565b6000601f8201831361055b57600080fd5b813561056e61056982610803565b6107dc565b9150808252602083016020830185838301111561058a57600080fd5b610595838284610853565b50505092915050565b600080600080608085870312156105b457600080fd5b60006105c08787610537565b945050602085013567ffffffffffffffff8111156105dd57600080fd5b6105e98782880161054a565b935050604085013567ffffffffffffffff81111561060657600080fd5b6106128782880161054a565b925050606085013567ffffffffffffffff81111561062f57600080fd5b61063b8782880161054a565b91505092959194509250565b61065081610835565b82525050565b600061066182610831565b8084526020840193508360208202850161067a8561082b565b60005b848110156106b1578383038852610695838351610722565b92506106a08261082b565b60209890980197915060010161067d565b50909695505050505050565b60006106c882610831565b8084526106dc81602086016020860161085f565b6106e58161088f565b9093016020019392505050565b601d81527f596f752063616e6e6f7420697373756520636572746966696361746573000000602082015260400190565b805160009060a08401906107368582610647565b506020830151848203602086015261074e82826106bd565b9150506040830151848203604086015261076882826106bd565b915050606083015161077d606086018261079e565b506080830151848203608086015261079582826106bd565b95945050505050565b6106508161030d565b602081016107b58284610647565b92915050565b602080825281016105438184610656565b602080825281016107b5816106f2565b60405181810167ffffffffffffffff811182821017156107fb57600080fd5b604052919050565b600067ffffffffffffffff82111561081a57600080fd5b506020601f91909101601f19160190565b60200190565b5190565b600073ffffffffffffffffffffffffffffffffffffffff82166107b5565b82818337506000910152565b60005b8381101561087a578181015183820152602001610862565b83811115610889576000848401525b50505050565b601f01601f19169056fea265627a7a723058207a9a888d8375ec249bbf8ada864c88751571a3672f062561390c50334495ede46c6578706572696d656e74616cf50037",
  "source": "// SPDX-License-Identifier: MIT\npragma solidity >=0.5.0 <0.9.0;\npragma experimental ABIEncoderV2;\n\n\n\ncontract Certification {\n    address constant SENDER = 0x1583fF370ac71Db02E085cc98Da1613fcFD21Ace;\n    \n    \n    address public owner;\n\n    struct Certificate {\n        address to;\n        string name;\n        string competitionName;\n        uint256 timestamp;\n        string email;\n    }\n    Certificate[] certificates;\n\n    constructor () public {\n        owner = msg.sender;\n    }\n\n    function issueCertificate(address to, string memory name, string memory competitionName, string memory email) public {\n        require(msg.sender == SENDER, \"You cannot issue certificates\");\n\n        certificates.push(Certificate(to, name, competitionName, block.timestamp, email));\n    }\n\n    function viewCertificates() public view returns (Certificate[] memory)\n    {\n        return certificates;\n    }\n\n}",
  "sourcePath": "/Volumes/Personal/Projects/blockchain/BlockchainCertification/contracts/Certification.sol",
  "compiler": {
    "name": "solc",
    "version": "0.5.0+commit.1d4f565a.Emscripten.clang"
  },
  "schemaVersion": "3.0.1",
  "updatedAt": "2023-04-10T19:41:09.341Z",
  "devdoc": {
    "methods": {}
  },
  "userdoc": {
    "methods": {}
  }
}